:020000020000FC
:1000000012C020C01FC01EC01DC01CC01BC01AC013
:1000100019C018C017C017C017C017C013C012C02E
:1000200011C010C00FC0F8949FE524E02EBF9DBF03
:100030000DD014D020D034D0C09859E329D030D07E
:10004000C09AF9CF18951895189518959FE394BB09
:100050009FE297BB9EEF91BBF894089598E297BBFF
:1000600090E59DB908955FB9779BFECF0895552718
:10007000FADF5FB1089510E003E310BD09B958E15C
:100080005AB956E850BD08955F9BFECF5CB1089504
:1000900007D0C19805D0C19A5D9BFACF5CB908958D
:1000A00060E47CE980E0615070408040E0F70895B2
:00000001FF
