:020000020000FC
:1000000012C045C043C042C041C040C03FC03EC016
:100010003DC03CC03BC03AC039C038C037C036C014
:1000200035C034C033C0F8941FED1DBFA0E6BB2718
:1000300015E01D9311E01D9319E01D9318E01D9329
:100040001AE01D9312E01D9316E01D9314E01D931A
:100050001FE417BB18E11DB912E515BF10E41BBF63
:10006000112710BD13E01ABB1BE311BB13E012BB39
:10007000112713E012BBBB27A0E61C91106018BB30
:1000800001EE002E789413E012BBFDCF1895939AE1
:100090001FEF1ABF002D37D0002E949A07FF10C013
:1000A0000F77A03611F4A7E601C0AA951C91106045
:1000B00018BB20D095981ED0959A0A9589F70FC045
:1000C0000F77A73611F4A0E601C0A3951C9110602C
:1000D00018BB10D096980ED0969A0A9589F71FEF04
:1000E0001ABF189520E035E347E0215030404040EA
:1000F000E0F7089521E330E002C023E630E021502C
:100100003040E8F708950FB9769A769BFECF0FB18D
:02011000089550
:00000001FF
