:020000020000FC
:1000000000C0F8946FE524E02EBF6DBF12D019D068
:1000100028D030D0352F42D055EC30D03FD02AD028
:10002000452F532F2FD034D0542F12D037D026D075
:10003000F0CF6FE364BB6FE267BB6EEF61BBF89418
:1000400008956CE267BB64E168BB60E56DB9089533
:100050005FB9779BFECF5FB108955527F9DF5FB198
:10006000089510E003E310BD09B958E15AB956E804
:1000700050BD08955F9BFECF5CB108955D9BFECFA0
:100080005CB908955770586055BB00000000089592
:100090005527506355BB00000000089590E47CE9AB
:0C00A00080E0915070408040E0F708952F
:00000001FF
