:020000020000FC
:1000000000C0F8946FE524E02EBF6DBF3ED045D010
:1000100054D070D050E062D06DD054E845D0533009
:1000200009F402C0C09A01C0C09864D05DD062D00B
:1000300061D060D05FD05ED05DD05CD05BD05AD054
:1000400059D058D057D056D055D054D053D050E076
:1000500045D050D053E028D0543809F402C0C19A9A
:1000600001C0C19847D040D045D044D043D042D001
:1000700041D040D03FD03ED03DD03CD03BD03AD014
:1000800039D038D037D036D0C4CF6FE364BB6FE2FD
:1000900067BB6EEF61BBF89408956CE267BB64E1E7
:1000A00068BB60E56DB908955FB9779BFECF5FB11E
:1000B00008955527F9DF5FB1089510E003E310BDFF
:1000C00009B958E15AB956E850BD08955F9BFECF73
:1000D0005CB108955D9BFECF5CB908955770586080
:1000E00055BB0000000008955527506355BB000024
:1000F0000000089590E47CE981E0915070408040D8
:04010000E0F7089587
:00000001FF
