:020000020000FC
:1000000012C03EC03CC03BC03AC039C038C037C047
:1000100036C035C034C033C032C031C030C02FC04C
:100020002EC02DC02CC0F8941FED1DBFA0E6BB272D
:1000300015E01D9311E01D9319E01D9318E01D9329
:100040001AE01D9312E01D9316E01D9314E01D931A
:1000500056D012E515BF10E41BBF112710BD1BE3DE
:1000600011BB13E012BB112713E012BBBB27A0E6A4
:100070001C91106018BB789413E012BBFDCF18954B
:10008000939A1FEF1ABF44D013E012BB949A07FF54
:1000900010C013E012BB959A087FA03611F4A7E6B2
:1000A00001C0AA951C91106018BB1DD00A9589F754
:1000B0000FC013E012BB969A087FA73611F4A0E692
:1000C00001C0A3951C91106018BB0DD00A9509F7CB
:1000D0001FEF1ABF189520E035E343E02150304070
:1000E0004040E0F7089523E630E021503040E8F743
:1000F00008950FB9769A7699FECF0FB1089510E062
:1001000003E312B909B908E10AB90EE003B9089589
:100110005F9BFECF0CB1089507D0C19805D0C19A5E
:100120005D9BFACF0CB9089560E47CE980E06150F2
:0801300070408040E0F70895E3
:00000001FF
