:020000020000FC
:1000000012C022C021C020C01FC01EC01DC01CC005
:100010001BC01AC019C019C019C019C015C014C01E
:1000200013C012C011C0F8949FE524E02EBF9DBFFD
:100030000FD016D022D036D0C09828D033D058E375
:1000400029D030D0C09AF7CF1895189518951895E3
:100050009FE394BB9FE297BB9EEF91BBF8940895FA
:1000600098E297BB90E59DB908955FB9779BFECF65
:1000700008955527FADF5FB1089510E003E310BD3E
:1000800009B958E15AB956E850BD08955F9BFECFB3
:100090005CB1089507D0C19805D0C19A5D9BFACF95
:1000A0005CB9089560E47CE980E061507040804074
:0400B000E0F70895D8
:00000001FF
