:020000020000FC
:1000000012C043C041C040C03FC03EC03DC03CC024
:100010003BC03AC039C038C037C036C035C034C024
:1000200033C032C031C0F8941FED1DBFA0E6BB271E
:1000300015E01D9311E01D9319E01D9318E01D9329
:100040001AE01D9312E01D9316E01D9314E01D931A
:100050001FE417BB18E11DB912E515BF10E41BBF63
:10006000112710BD13E01ABB1BE311BB13E012BB39
:10007000112713E012BBBB27A0E61C91106018BB30
:1000800013E012BB02D0FCCF1895D99A939A1FEFB8
:100090001ABF13E012BB949A03E807FF10C013E0E5
:1000A00012BB0F77A03611F4A7E601C0AA951C91E8
:1000B000106018BB21D0959A0A9589F70FC013E0FC
:1000C00012BB0F77A73611F4A0E601C0A3951C91CF
:1000D000106018BB11D0969A0A9589F713E012BBED
:1000E000D9981FEF1ABF089520E035E347E021506B
:1000F00030404040E0F7089523E630E021503040A2
:10010000E8F708950FB9769AEFDF959AEDDF9598A5
:0A011000769B7699F9CF0FB10895A0
:00000001FF
